:04000000ac00080048
:04000100ac00080443
:04000200ac00080541
:04000300ac0008083d
:04000400ac0008093b
:04000500ac00080c37
:04000600ac00080d35
:040007008c0b00005e
:040008000000402193
:04000900200d008046
:04000a0020080001c9
:04000b008c0c081041
:04000c00318a000134
:04000d001540000397
:04000e00318a000231
:04000f001540000a8e
:0400100008000c0bcd
:040011000008404063
:04001200ac0808002e
:04001300ac08080429
:04001400ac08080527
:04001500ac08080823
:04001600ac08080921
:04001700ac08080c1d
:04001800ac08080d1b
:0400190008000c22ad
:04001a00000d68422b
:04001b00ac0d080020
:04001c00ac0d08041b
:04001d00ac0d080519
:04001e00ac0d080815
:04001f00ac0d080913
:04002000ac0d080c0f
:04002100ac0d080d0d
:040022000000482171
:04002300212900018e
:04002400012b502a32
:040025001140ffe5a2
:0400260008000c239f
:00000001FF