:04000000ac00080048
:04000100ac00080443
:04000200ac00080541
:04000300ac0008083d
:04000400ac0008093b
:04000500ac00080c37
:04000600ac00080d35
:040007008c0b00005e
:040008000000402193
:040009008c0c081043
:04000a00318a000136
:04000b001540000399
:04000c00318a000233
:04000d001540000a90
:04000e0008000c09d1
:04000f0021080002c2
:04001000ac08080030
:04001100ac0808042b
:04001200ac08080529
:04001300ac08080825
:04001400ac08080923
:04001500ac08080c1f
:04001600ac08080d1d
:0400170008000c20b1
:040018002108fffebe
:04001900ac08080027
:04001a00ac08080422
:04001b00ac08080520
:04001c00ac0808081c
:04001d00ac0808091a
:04001e00ac08080c16
:04001f00ac08080d14
:040020000000482173
:040021002129000190
:04002200012b502a34
:040023001140ffe5a4
:0400240008000c21a3
:00000001FF